{
  "_format": "hh-sol-artifact-1",
  "contractName": "Voting",
  "sourceName": "contracts/Voting.sol",
  "abi": [
    {
      "inputs": [
        {
          "internalType": "bytes",
          "name": "_backendKey",
          "type": "bytes"
        }
      ],
      "stateMutability": "nonpayable",
      "type": "constructor"
    },
    {
      "inputs": [
        {
          "internalType": "string",
          "name": "_name",
          "type": "string"
        }
      ],
      "name": "addCandidate",
      "outputs": [],
      "stateMutability": "nonpayable",
      "type": "function"
    },
    {
      "inputs": [
        {
          "internalType": "address",
          "name": "_voter",
          "type": "address"
        },
        {
          "internalType": "bytes",
          "name": "_voterKey",
          "type": "bytes"
        }
      ],
      "name": "addVoter",
      "outputs": [],
      "stateMutability": "nonpayable",
      "type": "function"
    },
    {
      "inputs": [],
      "name": "backendKey",
      "outputs": [
        {
          "internalType": "bytes",
          "name": "",
          "type": "bytes"
        }
      ],
      "stateMutability": "view",
      "type": "function"
    },
    {
      "inputs": [
        {
          "internalType": "uint256",
          "name": "",
          "type": "uint256"
        }
      ],
      "name": "candidates",
      "outputs": [
        {
          "internalType": "string",
          "name": "name",
          "type": "string"
        },
        {
          "internalType": "uint256",
          "name": "voteCount",
          "type": "uint256"
        }
      ],
      "stateMutability": "view",
      "type": "function"
    },
    {
      "inputs": [],
      "name": "candidatesCount",
      "outputs": [
        {
          "internalType": "uint256",
          "name": "",
          "type": "uint256"
        }
      ],
      "stateMutability": "view",
      "type": "function"
    },
    {
      "inputs": [],
      "name": "electionRunning",
      "outputs": [
        {
          "internalType": "bool",
          "name": "",
          "type": "bool"
        }
      ],
      "stateMutability": "view",
      "type": "function"
    },
    {
      "inputs": [],
      "name": "endElection",
      "outputs": [],
      "stateMutability": "nonpayable",
      "type": "function"
    },
    {
      "inputs": [
        {
          "internalType": "uint256",
          "name": "_candidateId",
          "type": "uint256"
        }
      ],
      "name": "getCandidate",
      "outputs": [
        {
          "internalType": "string",
          "name": "",
          "type": "string"
        },
        {
          "internalType": "uint256",
          "name": "",
          "type": "uint256"
        }
      ],
      "stateMutability": "view",
      "type": "function"
    },
    {
      "inputs": [
        {
          "internalType": "address",
          "name": "_voter",
          "type": "address"
        }
      ],
      "name": "getVoterInfo",
      "outputs": [
        {
          "internalType": "bool",
          "name": "",
          "type": "bool"
        },
        {
          "internalType": "bool",
          "name": "",
          "type": "bool"
        },
        {
          "internalType": "bool",
          "name": "",
          "type": "bool"
        }
      ],
      "stateMutability": "view",
      "type": "function"
    },
    {
      "inputs": [],
      "name": "owner",
      "outputs": [
        {
          "internalType": "address",
          "name": "",
          "type": "address"
        }
      ],
      "stateMutability": "view",
      "type": "function"
    },
    {
      "inputs": [],
      "name": "startElection",
      "outputs": [],
      "stateMutability": "nonpayable",
      "type": "function"
    },
    {
      "inputs": [
        {
          "internalType": "address",
          "name": "_voter",
          "type": "address"
        },
        {
          "internalType": "bytes",
          "name": "_backendKey",
          "type": "bytes"
        }
      ],
      "name": "validateVote",
      "outputs": [],
      "stateMutability": "nonpayable",
      "type": "function"
    },
    {
      "inputs": [
        {
          "internalType": "uint256",
          "name": "_candidateId",
          "type": "uint256"
        },
        {
          "internalType": "bytes",
          "name": "_voterKey",
          "type": "bytes"
        }
      ],
      "name": "vote",
      "outputs": [],
      "stateMutability": "nonpayable",
      "type": "function"
    },
    {
      "inputs": [
        {
          "internalType": "address",
          "name": "",
          "type": "address"
        }
      ],
      "name": "voters",
      "outputs": [
        {
          "internalType": "bool",
          "name": "hasVoted",
          "type": "bool"
        },
        {
          "internalType": "bool",
          "name": "isValidated",
          "type": "bool"
        },
        {
          "internalType": "bytes",
          "name": "voterKey",
          "type": "bytes"
        },
        {
          "internalType": "bool",
          "name": "isRegistered",
          "type": "bool"
        }
      ],
      "stateMutability": "view",
      "type": "function"
    }
  ],
  "bytecode": "0x60806040526000600360146101000a81548160ff0219169083151502179055503480156200002c57600080fd5b506040516200279d3803806200279d83398181016040528101906200005291906200023f565b33600360006101000a81548173ffffffffffffffffffffffffffffffffffffffff021916908373ffffffffffffffffffffffffffffffffffffffff1602179055508060049081620000a49190620004db565b5050620005c2565b6000604051905090565b600080fd5b600080fd5b600080fd5b600080fd5b6000601f19601f8301169050919050565b7f4e487b7100000000000000000000000000000000000000000000000000000000600052604160045260246000fd5b6200011582620000ca565b810181811067ffffffffffffffff82111715620001375762000136620000db565b5b80604052505050565b60006200014c620000ac565b90506200015a82826200010a565b919050565b600067ffffffffffffffff8211156200017d576200017c620000db565b5b6200018882620000ca565b9050602081019050919050565b60005b83811015620001b557808201518184015260208101905062000198565b60008484015250505050565b6000620001d8620001d2846200015f565b62000140565b905082815260208101848484011115620001f757620001f6620000c5565b5b6200020484828562000195565b509392505050565b600082601f830112620002245762000223620000c0565b5b815162000236848260208601620001c1565b91505092915050565b600060208284031215620002585762000257620000b6565b5b600082015167ffffffffffffffff811115620002795762000278620000bb565b5b62000287848285016200020c565b91505092915050565b600081519050919050565b7f4e487b7100000000000000000000000000000000000000000000000000000000600052602260045260246000fd5b60006002820490506001821680620002e357607f821691505b602082108103620002f957620002f86200029b565b5b50919050565b60008190508160005260206000209050919050565b60006020601f8301049050919050565b600082821b905092915050565b600060088302620003637fffffffffffffffffffffffffffffffffffffffffffffffffffffffffffffffff8262000324565b6200036f868362000324565b95508019841693508086168417925050509392505050565b6000819050919050565b6000819050919050565b6000620003bc620003b6620003b08462000387565b62000391565b62000387565b9050919050565b6000819050919050565b620003d8836200039b565b620003f0620003e782620003c3565b84845462000331565b825550505050565b600090565b62000407620003f8565b62000414818484620003cd565b505050565b5b818110156200043c5762000430600082620003fd565b6001810190506200041a565b5050565b601f8211156200048b576200045581620002ff565b620004608462000314565b8101602085101562000470578190505b620004886200047f8562000314565b83018262000419565b50505b505050565b600082821c905092915050565b6000620004b06000198460080262000490565b1980831691505092915050565b6000620004cb83836200049d565b9150826002028217905092915050565b620004e68262000290565b67ffffffffffffffff811115620005025762000501620000db565b5b6200050e8254620002ca565b6200051b82828562000440565b600060209050601f8311600181146200055357600084156200053e578287015190505b6200054a8582620004bd565b865550620005ba565b601f1984166200056386620002ff565b60005b828110156200058d5784890151825560018201915060208501945060208101905062000566565b86831015620005ad5784890151620005a9601f8916826200049d565b8355505b6001600288020188555050505b505050505050565b6121cb80620005d26000396000f3fe608060405234801561001057600080fd5b50600436106100ea5760003560e01c806359f784681161008c5780639ed1f255116100665780639ed1f25514610213578063a3ec138d14610245578063b88b82ba14610278578063d655d58e14610294576100ea565b806359f78468146101e157806362d73eb8146101eb5780638da5cb5b146101f5576100ea565b80633477ee2e116100c85780633477ee2e1461014757806335b8e82014610178578063392dc4fd146101a9578063462e91ec146101c5576100ea565b806313086ec9146100ef57806327b638991461010d5780632d35a8a214610129575b600080fd5b6100f76102b2565b60405161010491906111e8565b60405180910390f35b610127600480360381019061012291906113bb565b6102c5565b005b6101316104cb565b60405161013e9190611430565b60405180910390f35b610161600480360381019061015c9190611477565b6104d1565b60405161016f929190611523565b60405180910390f35b610192600480360381019061018d9190611477565b61057d565b6040516101a0929190611523565b60405180910390f35b6101c360048036038101906101be91906113bb565b6106a2565b005b6101df60048036038101906101da91906115f4565b610940565b005b6101e9610a38565b005b6101f3610ae5565b005b6101fd610bd1565b60405161020a919061164c565b60405180910390f35b61022d60048036038101906102289190611667565b610bf7565b60405161023c93929190611694565b60405180910390f35b61025f600480360381019061025a9190611667565b610d49565b60405161026f9493929190611720565b60405180910390f35b610292600480360381019061028d919061176c565b610e28565b005b61029c61113f565b6040516102a991906117c8565b60405180910390f35b600360149054906101000a900460ff1681565b600360009054906101000a900473ffffffffffffffffffffffffffffffffffffffff1673ffffffffffffffffffffffffffffffffffffffff163373ffffffffffffffffffffffffffffffffffffffff1614610355576040517f08c379a000000000000000000000000000000000000000000000000000000000815260040161034c9061185c565b60405180910390fd5b600160008373ffffffffffffffffffffffffffffffffffffffff1673ffffffffffffffffffffffffffffffffffffffff16815260200190815260200160002060020160009054906101000a900460ff16156103e5576040517f08c379a00000000000000000000000000000000000000000000000000000000081526004016103dc906118c8565b60405180910390fd5b604051806080016040528060001515815260200160001515815260200182815260200160011515815250600160008473ffffffffffffffffffffffffffffffffffffffff1673ffffffffffffffffffffffffffffffffffffffff16815260200190815260200160002060008201518160000160006101000a81548160ff02191690831515021790555060208201518160000160016101000a81548160ff02191690831515021790555060408201518160010190816104a39190611af4565b5060608201518160020160006101000a81548160ff0219169083151502179055509050505050565b60025481565b60006020528060005260406000206000915090508060000180546104f490611917565b80601f016020809104026020016040519081016040528092919081815260200182805461052090611917565b801561056d5780601f106105425761010080835404028352916020019161056d565b820191906000526020600020905b81548152906001019060200180831161055057829003601f168201915b5050505050908060010154905082565b60606000808311801561059257506002548311155b6105d1576040517f08c379a00000000000000000000000000000000000000000000000000000000081526004016105c890611c12565b60405180910390fd5b600080600085815260200190815260200160002060405180604001604052908160008201805461060090611917565b80601f016020809104026020016040519081016040528092919081815260200182805461062c90611917565b80156106795780601f1061064e57610100808354040283529160200191610679565b820191906000526020600020905b81548152906001019060200180831161065c57829003601f168201915b505050505081526020016001820154815250509050806000015181602001519250925050915091565b600360009054906101000a900473ffffffffffffffffffffffffffffffffffffffff1673ffffffffffffffffffffffffffffffffffffffff163373ffffffffffffffffffffffffffffffffffffffff1614610732576040517f08c379a00000000000000000000000000000000000000000000000000000000081526004016107299061185c565b60405180910390fd5b808051906020012060046040516107499190611cc0565b604051809103902014610791576040517f08c379a000000000000000000000000000000000000000000000000000000000815260040161078890611d23565b60405180910390fd5b600160008373ffffffffffffffffffffffffffffffffffffffff1673ffffffffffffffffffffffffffffffffffffffff16815260200190815260200160002060000160009054906101000a900460ff16610820576040517f08c379a000000000000000000000000000000000000000000000000000000000815260040161081790611d8f565b60405180910390fd5b600160008373ffffffffffffffffffffffffffffffffffffffff1673ffffffffffffffffffffffffffffffffffffffff16815260200190815260200160002060000160019054906101000a900460ff16156108b0576040517f08c379a00000000000000000000000000000000000000000000000000000000081526004016108a790611dfb565b60405180910390fd5b60018060008473ffffffffffffffffffffffffffffffffffffffff1673ffffffffffffffffffffffffffffffffffffffff16815260200190815260200160002060000160016101000a81548160ff021916908315150217905550600060019050600080828152602001908152602001600020600101600081548092919061093690611e4a565b9190505550505050565b600360009054906101000a900473ffffffffffffffffffffffffffffffffffffffff1673ffffffffffffffffffffffffffffffffffffffff163373ffffffffffffffffffffffffffffffffffffffff16146109d0576040517f08c379a00000000000000000000000000000000000000000000000000000000081526004016109c79061185c565b60405180910390fd5b600260008154809291906109e390611e4a565b91905055506040518060400160405280828152602001600081525060008060025481526020019081526020016000206000820151816000019081610a279190611eed565b506020820151816001015590505050565b600360009054906101000a900473ffffffffffffffffffffffffffffffffffffffff1673ffffffffffffffffffffffffffffffffffffffff163373ffffffffffffffffffffffffffffffffffffffff1614610ac8576040517f08c379a0000000000000000000000000000000000000000000000000000000008152600401610abf9061185c565b60405180910390fd5b6000600360146101000a81548160ff021916908315150217905550565b600360009054906101000a900473ffffffffffffffffffffffffffffffffffffffff1673ffffffffffffffffffffffffffffffffffffffff163373ffffffffffffffffffffffffffffffffffffffff1614610b75576040517f08c379a0000000000000000000000000000000000000000000000000000000008152600401610b6c9061185c565b60405180910390fd5b6000600190505b6002548111610bb3576000806000838152602001908152602001600020600101819055508080610bab90611e4a565b915050610b7c565b506001600360146101000a81548160ff021916908315150217905550565b600360009054906101000a900473ffffffffffffffffffffffffffffffffffffffff1681565b600080600080600160008673ffffffffffffffffffffffffffffffffffffffff1673ffffffffffffffffffffffffffffffffffffffff1681526020019081526020016000206040518060800160405290816000820160009054906101000a900460ff161515151581526020016000820160019054906101000a900460ff16151515158152602001600182018054610c8d90611917565b80601f0160208091040260200160405190810160405280929190818152602001828054610cb990611917565b8015610d065780601f10610cdb57610100808354040283529160200191610d06565b820191906000526020600020905b815481529060010190602001808311610ce957829003601f168201915b505050505081526020016002820160009054906101000a900460ff1615151515815250509050806000015181602001518260600151935093509350509193909250565b60016020528060005260406000206000915090508060000160009054906101000a900460ff16908060000160019054906101000a900460ff1690806001018054610d9290611917565b80601f0160208091040260200160405190810160405280929190818152602001828054610dbe90611917565b8015610e0b5780601f10610de057610100808354040283529160200191610e0b565b820191906000526020600020905b815481529060010190602001808311610dee57829003601f168201915b5050505050908060020160009054906101000a900460ff16905084565b600160003373ffffffffffffffffffffffffffffffffffffffff1673ffffffffffffffffffffffffffffffffffffffff16815260200190815260200160002060020160009054906101000a900460ff16610eb7576040517f08c379a0000000000000000000000000000000000000000000000000000000008152600401610eae9061200b565b60405180910390fd5b600360149054906101000a900460ff16610f06576040517f08c379a0000000000000000000000000000000000000000000000000000000008152600401610efd9061209d565b60405180910390fd5b600160003373ffffffffffffffffffffffffffffffffffffffff1673ffffffffffffffffffffffffffffffffffffffff16815260200190815260200160002060000160009054906101000a900460ff1615610f96576040517f08c379a0000000000000000000000000000000000000000000000000000000008152600401610f8d90612109565b60405180910390fd5b600082118015610fa857506002548211155b610fe7576040517f08c379a0000000000000000000000000000000000000000000000000000000008152600401610fde90611c12565b60405180910390fd5b8080519060200120600160003373ffffffffffffffffffffffffffffffffffffffff1673ffffffffffffffffffffffffffffffffffffffff16815260200190815260200160002060010160405161103e9190611cc0565b604051809103902014611086576040517f08c379a000000000000000000000000000000000000000000000000000000000815260040161107d90612175565b60405180910390fd5b60018060003373ffffffffffffffffffffffffffffffffffffffff1673ffffffffffffffffffffffffffffffffffffffff16815260200190815260200160002060000160006101000a81548160ff0219169083151502179055506000600160003373ffffffffffffffffffffffffffffffffffffffff1673ffffffffffffffffffffffffffffffffffffffff16815260200190815260200160002060000160016101000a81548160ff0219169083151502179055505050565b6004805461114c90611917565b80601f016020809104026020016040519081016040528092919081815260200182805461117890611917565b80156111c55780601f1061119a576101008083540402835291602001916111c5565b820191906000526020600020905b8154815290600101906020018083116111a857829003601f168201915b505050505081565b60008115159050919050565b6111e2816111cd565b82525050565b60006020820190506111fd60008301846111d9565b92915050565b6000604051905090565b600080fd5b600080fd5b600073ffffffffffffffffffffffffffffffffffffffff82169050919050565b600061124282611217565b9050919050565b61125281611237565b811461125d57600080fd5b50565b60008135905061126f81611249565b92915050565b600080fd5b600080fd5b6000601f19601f8301169050919050565b7f4e487b7100000000000000000000000000000000000000000000000000000000600052604160045260246000fd5b6112c88261127f565b810181811067ffffffffffffffff821117156112e7576112e6611290565b5b80604052505050565b60006112fa611203565b905061130682826112bf565b919050565b600067ffffffffffffffff82111561132657611325611290565b5b61132f8261127f565b9050602081019050919050565b82818337600083830152505050565b600061135e6113598461130b565b6112f0565b90508281526020810184848401111561137a5761137961127a565b5b61138584828561133c565b509392505050565b600082601f8301126113a2576113a1611275565b5b81356113b284826020860161134b565b91505092915050565b600080604083850312156113d2576113d161120d565b5b60006113e085828601611260565b925050602083013567ffffffffffffffff81111561140157611400611212565b5b61140d8582860161138d565b9150509250929050565b6000819050919050565b61142a81611417565b82525050565b60006020820190506114456000830184611421565b92915050565b61145481611417565b811461145f57600080fd5b50565b6000813590506114718161144b565b92915050565b60006020828403121561148d5761148c61120d565b5b600061149b84828501611462565b91505092915050565b600081519050919050565b600082825260208201905092915050565b60005b838110156114de5780820151818401526020810190506114c3565b60008484015250505050565b60006114f5826114a4565b6114ff81856114af565b935061150f8185602086016114c0565b6115188161127f565b840191505092915050565b6000604082019050818103600083015261153d81856114ea565b905061154c6020830184611421565b9392505050565b600067ffffffffffffffff82111561156e5761156d611290565b5b6115778261127f565b9050602081019050919050565b600061159761159284611553565b6112f0565b9050828152602081018484840111156115b3576115b261127a565b5b6115be84828561133c565b509392505050565b600082601f8301126115db576115da611275565b5b81356115eb848260208601611584565b91505092915050565b60006020828403121561160a5761160961120d565b5b600082013567ffffffffffffffff81111561162857611627611212565b5b611634848285016115c6565b91505092915050565b61164681611237565b82525050565b6000602082019050611661600083018461163d565b92915050565b60006020828403121561167d5761167c61120d565b5b600061168b84828501611260565b91505092915050565b60006060820190506116a960008301866111d9565b6116b660208301856111d9565b6116c360408301846111d9565b949350505050565b600081519050919050565b600082825260208201905092915050565b60006116f2826116cb565b6116fc81856116d6565b935061170c8185602086016114c0565b6117158161127f565b840191505092915050565b600060808201905061173560008301876111d9565b61174260208301866111d9565b818103604083015261175481856116e7565b905061176360608301846111d9565b95945050505050565b600080604083850312156117835761178261120d565b5b600061179185828601611462565b925050602083013567ffffffffffffffff8111156117b2576117b1611212565b5b6117be8582860161138d565b9150509250929050565b600060208201905081810360008301526117e281846116e7565b905092915050565b7f4f6e6c7920746865206f776e65722063616e20706572666f726d20746869732060008201527f616374696f6e0000000000000000000000000000000000000000000000000000602082015250565b60006118466026836114af565b9150611851826117ea565b604082019050919050565b6000602082019050818103600083015261187581611839565b9050919050565b7f566f74657220616c726561647920726567697374657265640000000000000000600082015250565b60006118b26018836114af565b91506118bd8261187c565b602082019050919050565b600060208201905081810360008301526118e1816118a5565b9050919050565b7f4e487b7100000000000000000000000000000000000000000000000000000000600052602260045260246000fd5b6000600282049050600182168061192f57607f821691505b602082108103611942576119416118e8565b5b50919050565b60008190508160005260206000209050919050565b60006020601f8301049050919050565b600082821b905092915050565b6000600883026119aa7fffffffffffffffffffffffffffffffffffffffffffffffffffffffffffffffff8261196d565b6119b4868361196d565b95508019841693508086168417925050509392505050565b6000819050919050565b60006119f16119ec6119e784611417565b6119cc565b611417565b9050919050565b6000819050919050565b611a0b836119d6565b611a1f611a17826119f8565b84845461197a565b825550505050565b600090565b611a34611a27565b611a3f818484611a02565b505050565b5b81811015611a6357611a58600082611a2c565b600181019050611a45565b5050565b601f821115611aa857611a7981611948565b611a828461195d565b81016020851015611a91578190505b611aa5611a9d8561195d565b830182611a44565b50505b505050565b600082821c905092915050565b6000611acb60001984600802611aad565b1980831691505092915050565b6000611ae48383611aba565b9150826002028217905092915050565b611afd826116cb565b67ffffffffffffffff811115611b1657611b15611290565b5b611b208254611917565b611b2b828285611a67565b600060209050601f831160018114611b5e5760008415611b4c578287015190505b611b568582611ad8565b865550611bbe565b601f198416611b6c86611948565b60005b82811015611b9457848901518255600182019150602085019450602081019050611b6f565b86831015611bb15784890151611bad601f891682611aba565b8355505b6001600288020188555050505b505050505050565b7f496e76616c69642063616e646964617465000000000000000000000000000000600082015250565b6000611bfc6011836114af565b9150611c0782611bc6565b602082019050919050565b60006020820190508181036000830152611c2b81611bef565b9050919050565b600081905092915050565b60008154611c4a81611917565b611c548186611c32565b94506001821660008114611c6f5760018114611c8457611cb7565b60ff1983168652811515820286019350611cb7565b611c8d85611948565b60005b83811015611caf57815481890152600182019150602081019050611c90565b838801955050505b50505092915050565b6000611ccc8284611c3d565b915081905092915050565b7f496e76616c6964206261636b656e64206b657900000000000000000000000000600082015250565b6000611d0d6013836114af565b9150611d1882611cd7565b602082019050919050565b60006020820190508181036000830152611d3c81611d00565b9050919050565b7f566f74657220686173206e6f7420766f74656420796574000000000000000000600082015250565b6000611d796017836114af565b9150611d8482611d43565b602082019050919050565b60006020820190508181036000830152611da881611d6c565b9050919050565b7f566f746520616c72656164792076616c69646174656400000000000000000000600082015250565b6000611de56016836114af565b9150611df082611daf565b602082019050919050565b60006020820190508181036000830152611e1481611dd8565b9050919050565b7f4e487b7100000000000000000000000000000000000000000000000000000000600052601160045260246000fd5b6000611e5582611417565b91507fffffffffffffffffffffffffffffffffffffffffffffffffffffffffffffffff8203611e8757611e86611e1b565b5b600182019050919050565b60008190508160005260206000209050919050565b601f821115611ee857611eb981611e92565b611ec28461195d565b81016020851015611ed1578190505b611ee5611edd8561195d565b830182611a44565b50505b505050565b611ef6826114a4565b67ffffffffffffffff811115611f0f57611f0e611290565b5b611f198254611917565b611f24828285611ea7565b600060209050601f831160018114611f575760008415611f45578287015190505b611f4f8582611ad8565b865550611fb7565b601f198416611f6586611e92565b60005b82811015611f8d57848901518255600182019150602085019450602081019050611f68565b86831015611faa5784890151611fa6601f891682611aba565b8355505b6001600288020188555050505b505050505050565b7f596f7520617265206e6f742061207265676973746572656420766f7465720000600082015250565b6000611ff5601e836114af565b915061200082611fbf565b602082019050919050565b6000602082019050818103600083015261202481611fe8565b9050919050565b7f456c656374696f6e206973206e6f742063757272656e746c792072756e6e696e60008201527f6700000000000000000000000000000000000000000000000000000000000000602082015250565b60006120876021836114af565b91506120928261202b565b604082019050919050565b600060208201905081810360008301526120b68161207a565b9050919050565b7f596f75206861766520616c726561647920766f74656400000000000000000000600082015250565b60006120f36016836114af565b91506120fe826120bd565b602082019050919050565b60006020820190508181036000830152612122816120e6565b9050919050565b7f496e76616c696420766f746572206b6579000000000000000000000000000000600082015250565b600061215f6011836114af565b915061216a82612129565b602082019050919050565b6000602082019050818103600083015261218e81612152565b905091905056fea26469706673582212205652bc8b09c5c4e45171fad199fd9783edd562ebe888154e14cca93f8bcf1c4a64736f6c63430008180033",
  "linkReferences": {},
  "deployedLinkReferences": {}
}