{
  "_format": "hh-sol-artifact-1",
  "contractName": "Voting",
  "sourceName": "contracts/Voting.sol",
  "abi": [
    {
      "inputs": [
        {
          "internalType": "bytes",
          "name": "_backendKey",
          "type": "bytes"
        }
      ],
      "stateMutability": "nonpayable",
      "type": "constructor"
    },
    {
      "inputs": [
        {
          "internalType": "string",
          "name": "_name",
          "type": "string"
        }
      ],
      "name": "addCandidate",
      "outputs": [],
      "stateMutability": "nonpayable",
      "type": "function"
    },
    {
      "inputs": [
        {
          "internalType": "address",
          "name": "_voter",
          "type": "address"
        },
        {
          "internalType": "bytes",
          "name": "_voterKey",
          "type": "bytes"
        }
      ],
      "name": "addVoter",
      "outputs": [],
      "stateMutability": "nonpayable",
      "type": "function"
    },
    {
      "inputs": [],
      "name": "backendKey",
      "outputs": [
        {
          "internalType": "bytes",
          "name": "",
          "type": "bytes"
        }
      ],
      "stateMutability": "view",
      "type": "function"
    },
    {
      "inputs": [
        {
          "internalType": "uint256",
          "name": "",
          "type": "uint256"
        }
      ],
      "name": "candidates",
      "outputs": [
        {
          "internalType": "string",
          "name": "name",
          "type": "string"
        },
        {
          "internalType": "uint256",
          "name": "voteCount",
          "type": "uint256"
        }
      ],
      "stateMutability": "view",
      "type": "function"
    },
    {
      "inputs": [],
      "name": "candidatesCount",
      "outputs": [
        {
          "internalType": "uint256",
          "name": "",
          "type": "uint256"
        }
      ],
      "stateMutability": "view",
      "type": "function"
    },
    {
      "inputs": [],
      "name": "electionRunning",
      "outputs": [
        {
          "internalType": "bool",
          "name": "",
          "type": "bool"
        }
      ],
      "stateMutability": "view",
      "type": "function"
    },
    {
      "inputs": [],
      "name": "endElection",
      "outputs": [],
      "stateMutability": "nonpayable",
      "type": "function"
    },
    {
      "inputs": [
        {
          "internalType": "uint256",
          "name": "_candidateId",
          "type": "uint256"
        }
      ],
      "name": "getCandidate",
      "outputs": [
        {
          "internalType": "string",
          "name": "",
          "type": "string"
        },
        {
          "internalType": "uint256",
          "name": "",
          "type": "uint256"
        }
      ],
      "stateMutability": "view",
      "type": "function"
    },
    {
      "inputs": [],
      "name": "getTotalVotes",
      "outputs": [
        {
          "internalType": "uint256[]",
          "name": "",
          "type": "uint256[]"
        }
      ],
      "stateMutability": "view",
      "type": "function"
    },
    {
      "inputs": [
        {
          "internalType": "address",
          "name": "_voter",
          "type": "address"
        }
      ],
      "name": "getVoterInfo",
      "outputs": [
        {
          "internalType": "bool",
          "name": "",
          "type": "bool"
        },
        {
          "internalType": "bool",
          "name": "",
          "type": "bool"
        },
        {
          "internalType": "bool",
          "name": "",
          "type": "bool"
        }
      ],
      "stateMutability": "view",
      "type": "function"
    },
    {
      "inputs": [],
      "name": "owner",
      "outputs": [
        {
          "internalType": "address",
          "name": "",
          "type": "address"
        }
      ],
      "stateMutability": "view",
      "type": "function"
    },
    {
      "inputs": [],
      "name": "startElection",
      "outputs": [],
      "stateMutability": "nonpayable",
      "type": "function"
    },
    {
      "inputs": [
        {
          "internalType": "address",
          "name": "_voter",
          "type": "address"
        },
        {
          "internalType": "bytes",
          "name": "_backendKey",
          "type": "bytes"
        }
      ],
      "name": "validateVote",
      "outputs": [],
      "stateMutability": "nonpayable",
      "type": "function"
    },
    {
      "inputs": [
        {
          "internalType": "uint256",
          "name": "_candidateId",
          "type": "uint256"
        },
        {
          "internalType": "bytes",
          "name": "_voterKey",
          "type": "bytes"
        }
      ],
      "name": "vote",
      "outputs": [],
      "stateMutability": "nonpayable",
      "type": "function"
    },
    {
      "inputs": [
        {
          "internalType": "address",
          "name": "",
          "type": "address"
        }
      ],
      "name": "voters",
      "outputs": [
        {
          "internalType": "bool",
          "name": "hasVoted",
          "type": "bool"
        },
        {
          "internalType": "bool",
          "name": "isValidated",
          "type": "bool"
        },
        {
          "internalType": "bytes",
          "name": "voterKey",
          "type": "bytes"
        },
        {
          "internalType": "bool",
          "name": "isRegistered",
          "type": "bool"
        }
      ],
      "stateMutability": "view",
      "type": "function"
    }
  ],
  "bytecode": "0x60806040526000600360146101000a81548160ff0219169083151502179055503480156200002c57600080fd5b50604051620029c6380380620029c683398181016040528101906200005291906200023f565b33600360006101000a81548173ffffffffffffffffffffffffffffffffffffffff021916908373ffffffffffffffffffffffffffffffffffffffff1602179055508060049081620000a49190620004db565b5050620005c2565b6000604051905090565b600080fd5b600080fd5b600080fd5b600080fd5b6000601f19601f8301169050919050565b7f4e487b7100000000000000000000000000000000000000000000000000000000600052604160045260246000fd5b6200011582620000ca565b810181811067ffffffffffffffff82111715620001375762000136620000db565b5b80604052505050565b60006200014c620000ac565b90506200015a82826200010a565b919050565b600067ffffffffffffffff8211156200017d576200017c620000db565b5b6200018882620000ca565b9050602081019050919050565b60005b83811015620001b557808201518184015260208101905062000198565b60008484015250505050565b6000620001d8620001d2846200015f565b62000140565b905082815260208101848484011115620001f757620001f6620000c5565b5b6200020484828562000195565b509392505050565b600082601f830112620002245762000223620000c0565b5b815162000236848260208601620001c1565b91505092915050565b600060208284031215620002585762000257620000b6565b5b600082015167ffffffffffffffff811115620002795762000278620000bb565b5b62000287848285016200020c565b91505092915050565b600081519050919050565b7f4e487b7100000000000000000000000000000000000000000000000000000000600052602260045260246000fd5b60006002820490506001821680620002e357607f821691505b602082108103620002f957620002f86200029b565b5b50919050565b60008190508160005260206000209050919050565b60006020601f8301049050919050565b600082821b905092915050565b600060088302620003637fffffffffffffffffffffffffffffffffffffffffffffffffffffffffffffffff8262000324565b6200036f868362000324565b95508019841693508086168417925050509392505050565b6000819050919050565b6000819050919050565b6000620003bc620003b6620003b08462000387565b62000391565b62000387565b9050919050565b6000819050919050565b620003d8836200039b565b620003f0620003e782620003c3565b84845462000331565b825550505050565b600090565b62000407620003f8565b62000414818484620003cd565b505050565b5b818110156200043c5762000430600082620003fd565b6001810190506200041a565b5050565b601f8211156200048b576200045581620002ff565b620004608462000314565b8101602085101562000470578190505b620004886200047f8562000314565b83018262000419565b50505b505050565b600082821c905092915050565b6000620004b06000198460080262000490565b1980831691505092915050565b6000620004cb83836200049d565b9150826002028217905092915050565b620004e68262000290565b67ffffffffffffffff811115620005025762000501620000db565b5b6200050e8254620002ca565b6200051b82828562000440565b600060209050601f8311600181146200055357600084156200053e578287015190505b6200054a8582620004bd565b865550620005ba565b601f1984166200056386620002ff565b60005b828110156200058d5784890151825560018201915060208501945060208101905062000566565b86831015620005ad5784890151620005a9601f8916826200049d565b8355505b6001600288020188555050505b505050505050565b6123f480620005d26000396000f3fe608060405234801561001057600080fd5b50600436106100f55760003560e01c806359f78468116100975780639ed1f255116100665780639ed1f2551461023c578063a3ec138d1461026e578063b88b82ba146102a1578063d655d58e146102bd576100f5565b806359f78468146101ec57806362d73eb8146101f65780638da5cb5b146102005780639a0e7d661461021e576100f5565b80633477ee2e116100d35780633477ee2e1461015257806335b8e82014610183578063392dc4fd146101b4578063462e91ec146101d0576100f5565b806313086ec9146100fa57806327b63899146101185780632d35a8a214610134575b600080fd5b6101026102db565b60405161010f91906112ce565b60405180910390f35b610132600480360381019061012d91906114a1565b6102ee565b005b61013c6104f4565b6040516101499190611516565b60405180910390f35b61016c6004803603810190610167919061155d565b6104fa565b60405161017a929190611609565b60405180910390f35b61019d6004803603810190610198919061155d565b6105a6565b6040516101ab929190611609565b60405180910390f35b6101ce60048036038101906101c991906114a1565b6106cb565b005b6101ea60048036038101906101e591906116da565b610969565b005b6101f4610a61565b005b6101fe610b0e565b005b610208610bfa565b6040516102159190611732565b60405180910390f35b610226610c20565b604051610233919061180b565b60405180910390f35b6102566004803603810190610251919061182d565b610cdd565b6040516102659392919061185a565b60405180910390f35b6102886004803603810190610283919061182d565b610e2f565b60405161029894939291906118e6565b60405180910390f35b6102bb60048036038101906102b69190611932565b610f0e565b005b6102c5611225565b6040516102d2919061198e565b60405180910390f35b600360149054906101000a900460ff1681565b600360009054906101000a900473ffffffffffffffffffffffffffffffffffffffff1673ffffffffffffffffffffffffffffffffffffffff163373ffffffffffffffffffffffffffffffffffffffff161461037e576040517f08c379a000000000000000000000000000000000000000000000000000000000815260040161037590611a22565b60405180910390fd5b600160008373ffffffffffffffffffffffffffffffffffffffff1673ffffffffffffffffffffffffffffffffffffffff16815260200190815260200160002060020160009054906101000a900460ff161561040e576040517f08c379a000000000000000000000000000000000000000000000000000000000815260040161040590611a8e565b60405180910390fd5b604051806080016040528060001515815260200160001515815260200182815260200160011515815250600160008473ffffffffffffffffffffffffffffffffffffffff1673ffffffffffffffffffffffffffffffffffffffff16815260200190815260200160002060008201518160000160006101000a81548160ff02191690831515021790555060208201518160000160016101000a81548160ff02191690831515021790555060408201518160010190816104cc9190611cba565b5060608201518160020160006101000a81548160ff0219169083151502179055509050505050565b60025481565b600060205280600052604060002060009150905080600001805461051d90611add565b80601f016020809104026020016040519081016040528092919081815260200182805461054990611add565b80156105965780601f1061056b57610100808354040283529160200191610596565b820191906000526020600020905b81548152906001019060200180831161057957829003601f168201915b5050505050908060010154905082565b6060600080831180156105bb57506002548311155b6105fa576040517f08c379a00000000000000000000000000000000000000000000000000000000081526004016105f190611dd8565b60405180910390fd5b600080600085815260200190815260200160002060405180604001604052908160008201805461062990611add565b80601f016020809104026020016040519081016040528092919081815260200182805461065590611add565b80156106a25780601f10610677576101008083540402835291602001916106a2565b820191906000526020600020905b81548152906001019060200180831161068557829003601f168201915b505050505081526020016001820154815250509050806000015181602001519250925050915091565b600360009054906101000a900473ffffffffffffffffffffffffffffffffffffffff1673ffffffffffffffffffffffffffffffffffffffff163373ffffffffffffffffffffffffffffffffffffffff161461075b576040517f08c379a000000000000000000000000000000000000000000000000000000000815260040161075290611a22565b60405180910390fd5b808051906020012060046040516107729190611e86565b6040518091039020146107ba576040517f08c379a00000000000000000000000000000000000000000000000000000000081526004016107b190611ee9565b60405180910390fd5b600160008373ffffffffffffffffffffffffffffffffffffffff1673ffffffffffffffffffffffffffffffffffffffff16815260200190815260200160002060000160009054906101000a900460ff16610849576040517f08c379a000000000000000000000000000000000000000000000000000000000815260040161084090611f55565b60405180910390fd5b600160008373ffffffffffffffffffffffffffffffffffffffff1673ffffffffffffffffffffffffffffffffffffffff16815260200190815260200160002060000160019054906101000a900460ff16156108d9576040517f08c379a00000000000000000000000000000000000000000000000000000000081526004016108d090611fc1565b60405180910390fd5b60018060008473ffffffffffffffffffffffffffffffffffffffff1673ffffffffffffffffffffffffffffffffffffffff16815260200190815260200160002060000160016101000a81548160ff021916908315150217905550600060019050600080828152602001908152602001600020600101600081548092919061095f90612010565b9190505550505050565b600360009054906101000a900473ffffffffffffffffffffffffffffffffffffffff1673ffffffffffffffffffffffffffffffffffffffff163373ffffffffffffffffffffffffffffffffffffffff16146109f9576040517f08c379a00000000000000000000000000000000000000000000000000000000081526004016109f090611a22565b60405180910390fd5b60026000815480929190610a0c90612010565b91905055506040518060400160405280828152602001600081525060008060025481526020019081526020016000206000820151816000019081610a5091906120b3565b506020820151816001015590505050565b600360009054906101000a900473ffffffffffffffffffffffffffffffffffffffff1673ffffffffffffffffffffffffffffffffffffffff163373ffffffffffffffffffffffffffffffffffffffff1614610af1576040517f08c379a0000000000000000000000000000000000000000000000000000000008152600401610ae890611a22565b60405180910390fd5b6000600360146101000a81548160ff021916908315150217905550565b600360009054906101000a900473ffffffffffffffffffffffffffffffffffffffff1673ffffffffffffffffffffffffffffffffffffffff163373ffffffffffffffffffffffffffffffffffffffff1614610b9e576040517f08c379a0000000000000000000000000000000000000000000000000000000008152600401610b9590611a22565b60405180910390fd5b6000600190505b6002548111610bdc576000806000838152602001908152602001600020600101819055508080610bd490612010565b915050610ba5565b506001600360146101000a81548160ff021916908315150217905550565b600360009054906101000a900473ffffffffffffffffffffffffffffffffffffffff1681565b6060600060025467ffffffffffffffff811115610c4057610c3f611376565b5b604051908082528060200260200182016040528015610c6e5781602001602082028036833780820191505090505b5090506000600190505b6002548111610cd5576000808281526020019081526020016000206001015482600183610ca59190612185565b81518110610cb657610cb56121b9565b5b6020026020010181815250508080610ccd90612010565b915050610c78565b508091505090565b600080600080600160008673ffffffffffffffffffffffffffffffffffffffff1673ffffffffffffffffffffffffffffffffffffffff1681526020019081526020016000206040518060800160405290816000820160009054906101000a900460ff161515151581526020016000820160019054906101000a900460ff16151515158152602001600182018054610d7390611add565b80601f0160208091040260200160405190810160405280929190818152602001828054610d9f90611add565b8015610dec5780601f10610dc157610100808354040283529160200191610dec565b820191906000526020600020905b815481529060010190602001808311610dcf57829003601f168201915b505050505081526020016002820160009054906101000a900460ff1615151515815250509050806000015181602001518260600151935093509350509193909250565b60016020528060005260406000206000915090508060000160009054906101000a900460ff16908060000160019054906101000a900460ff1690806001018054610e7890611add565b80601f0160208091040260200160405190810160405280929190818152602001828054610ea490611add565b8015610ef15780601f10610ec657610100808354040283529160200191610ef1565b820191906000526020600020905b815481529060010190602001808311610ed457829003601f168201915b5050505050908060020160009054906101000a900460ff16905084565b600160003373ffffffffffffffffffffffffffffffffffffffff1673ffffffffffffffffffffffffffffffffffffffff16815260200190815260200160002060020160009054906101000a900460ff16610f9d576040517f08c379a0000000000000000000000000000000000000000000000000000000008152600401610f9490612234565b60405180910390fd5b600360149054906101000a900460ff16610fec576040517f08c379a0000000000000000000000000000000000000000000000000000000008152600401610fe3906122c6565b60405180910390fd5b600160003373ffffffffffffffffffffffffffffffffffffffff1673ffffffffffffffffffffffffffffffffffffffff16815260200190815260200160002060000160009054906101000a900460ff161561107c576040517f08c379a000000000000000000000000000000000000000000000000000000000815260040161107390612332565b60405180910390fd5b60008211801561108e57506002548211155b6110cd576040517f08c379a00000000000000000000000000000000000000000000000000000000081526004016110c490611dd8565b60405180910390fd5b8080519060200120600160003373ffffffffffffffffffffffffffffffffffffffff1673ffffffffffffffffffffffffffffffffffffffff1681526020019081526020016000206001016040516111249190611e86565b60405180910390201461116c576040517f08c379a00000000000000000000000000000000000000000000000000000000081526004016111639061239e565b60405180910390fd5b60018060003373ffffffffffffffffffffffffffffffffffffffff1673ffffffffffffffffffffffffffffffffffffffff16815260200190815260200160002060000160006101000a81548160ff0219169083151502179055506000600160003373ffffffffffffffffffffffffffffffffffffffff1673ffffffffffffffffffffffffffffffffffffffff16815260200190815260200160002060000160016101000a81548160ff0219169083151502179055505050565b6004805461123290611add565b80601f016020809104026020016040519081016040528092919081815260200182805461125e90611add565b80156112ab5780601f10611280576101008083540402835291602001916112ab565b820191906000526020600020905b81548152906001019060200180831161128e57829003601f168201915b505050505081565b60008115159050919050565b6112c8816112b3565b82525050565b60006020820190506112e360008301846112bf565b92915050565b6000604051905090565b600080fd5b600080fd5b600073ffffffffffffffffffffffffffffffffffffffff82169050919050565b6000611328826112fd565b9050919050565b6113388161131d565b811461134357600080fd5b50565b6000813590506113558161132f565b92915050565b600080fd5b600080fd5b6000601f19601f8301169050919050565b7f4e487b7100000000000000000000000000000000000000000000000000000000600052604160045260246000fd5b6113ae82611365565b810181811067ffffffffffffffff821117156113cd576113cc611376565b5b80604052505050565b60006113e06112e9565b90506113ec82826113a5565b919050565b600067ffffffffffffffff82111561140c5761140b611376565b5b61141582611365565b9050602081019050919050565b82818337600083830152505050565b600061144461143f846113f1565b6113d6565b9050828152602081018484840111156114605761145f611360565b5b61146b848285611422565b509392505050565b600082601f8301126114885761148761135b565b5b8135611498848260208601611431565b91505092915050565b600080604083850312156114b8576114b76112f3565b5b60006114c685828601611346565b925050602083013567ffffffffffffffff8111156114e7576114e66112f8565b5b6114f385828601611473565b9150509250929050565b6000819050919050565b611510816114fd565b82525050565b600060208201905061152b6000830184611507565b92915050565b61153a816114fd565b811461154557600080fd5b50565b60008135905061155781611531565b92915050565b600060208284031215611573576115726112f3565b5b600061158184828501611548565b91505092915050565b600081519050919050565b600082825260208201905092915050565b60005b838110156115c45780820151818401526020810190506115a9565b60008484015250505050565b60006115db8261158a565b6115e58185611595565b93506115f58185602086016115a6565b6115fe81611365565b840191505092915050565b6000604082019050818103600083015261162381856115d0565b90506116326020830184611507565b9392505050565b600067ffffffffffffffff82111561165457611653611376565b5b61165d82611365565b9050602081019050919050565b600061167d61167884611639565b6113d6565b90508281526020810184848401111561169957611698611360565b5b6116a4848285611422565b509392505050565b600082601f8301126116c1576116c061135b565b5b81356116d184826020860161166a565b91505092915050565b6000602082840312156116f0576116ef6112f3565b5b600082013567ffffffffffffffff81111561170e5761170d6112f8565b5b61171a848285016116ac565b91505092915050565b61172c8161131d565b82525050565b60006020820190506117476000830184611723565b92915050565b600081519050919050565b600082825260208201905092915050565b6000819050602082019050919050565b611782816114fd565b82525050565b60006117948383611779565b60208301905092915050565b6000602082019050919050565b60006117b88261174d565b6117c28185611758565b93506117cd83611769565b8060005b838110156117fe5781516117e58882611788565b97506117f0836117a0565b9250506001810190506117d1565b5085935050505092915050565b6000602082019050818103600083015261182581846117ad565b905092915050565b600060208284031215611843576118426112f3565b5b600061185184828501611346565b91505092915050565b600060608201905061186f60008301866112bf565b61187c60208301856112bf565b61188960408301846112bf565b949350505050565b600081519050919050565b600082825260208201905092915050565b60006118b882611891565b6118c2818561189c565b93506118d28185602086016115a6565b6118db81611365565b840191505092915050565b60006080820190506118fb60008301876112bf565b61190860208301866112bf565b818103604083015261191a81856118ad565b905061192960608301846112bf565b95945050505050565b60008060408385031215611949576119486112f3565b5b600061195785828601611548565b925050602083013567ffffffffffffffff811115611978576119776112f8565b5b61198485828601611473565b9150509250929050565b600060208201905081810360008301526119a881846118ad565b905092915050565b7f4f6e6c7920746865206f776e65722063616e20706572666f726d20746869732060008201527f616374696f6e0000000000000000000000000000000000000000000000000000602082015250565b6000611a0c602683611595565b9150611a17826119b0565b604082019050919050565b60006020820190508181036000830152611a3b816119ff565b9050919050565b7f566f74657220616c726561647920726567697374657265640000000000000000600082015250565b6000611a78601883611595565b9150611a8382611a42565b602082019050919050565b60006020820190508181036000830152611aa781611a6b565b9050919050565b7f4e487b7100000000000000000000000000000000000000000000000000000000600052602260045260246000fd5b60006002820490506001821680611af557607f821691505b602082108103611b0857611b07611aae565b5b50919050565b60008190508160005260206000209050919050565b60006020601f8301049050919050565b600082821b905092915050565b600060088302611b707fffffffffffffffffffffffffffffffffffffffffffffffffffffffffffffffff82611b33565b611b7a8683611b33565b95508019841693508086168417925050509392505050565b6000819050919050565b6000611bb7611bb2611bad846114fd565b611b92565b6114fd565b9050919050565b6000819050919050565b611bd183611b9c565b611be5611bdd82611bbe565b848454611b40565b825550505050565b600090565b611bfa611bed565b611c05818484611bc8565b505050565b5b81811015611c2957611c1e600082611bf2565b600181019050611c0b565b5050565b601f821115611c6e57611c3f81611b0e565b611c4884611b23565b81016020851015611c57578190505b611c6b611c6385611b23565b830182611c0a565b50505b505050565b600082821c905092915050565b6000611c9160001984600802611c73565b1980831691505092915050565b6000611caa8383611c80565b9150826002028217905092915050565b611cc382611891565b67ffffffffffffffff811115611cdc57611cdb611376565b5b611ce68254611add565b611cf1828285611c2d565b600060209050601f831160018114611d245760008415611d12578287015190505b611d1c8582611c9e565b865550611d84565b601f198416611d3286611b0e565b60005b82811015611d5a57848901518255600182019150602085019450602081019050611d35565b86831015611d775784890151611d73601f891682611c80565b8355505b6001600288020188555050505b505050505050565b7f496e76616c69642063616e646964617465000000000000000000000000000000600082015250565b6000611dc2601183611595565b9150611dcd82611d8c565b602082019050919050565b60006020820190508181036000830152611df181611db5565b9050919050565b600081905092915050565b60008154611e1081611add565b611e1a8186611df8565b94506001821660008114611e355760018114611e4a57611e7d565b60ff1983168652811515820286019350611e7d565b611e5385611b0e565b60005b83811015611e7557815481890152600182019150602081019050611e56565b838801955050505b50505092915050565b6000611e928284611e03565b915081905092915050565b7f496e76616c6964206261636b656e64206b657900000000000000000000000000600082015250565b6000611ed3601383611595565b9150611ede82611e9d565b602082019050919050565b60006020820190508181036000830152611f0281611ec6565b9050919050565b7f566f74657220686173206e6f7420766f74656420796574000000000000000000600082015250565b6000611f3f601783611595565b9150611f4a82611f09565b602082019050919050565b60006020820190508181036000830152611f6e81611f32565b9050919050565b7f566f746520616c72656164792076616c69646174656400000000000000000000600082015250565b6000611fab601683611595565b9150611fb682611f75565b602082019050919050565b60006020820190508181036000830152611fda81611f9e565b9050919050565b7f4e487b7100000000000000000000000000000000000000000000000000000000600052601160045260246000fd5b600061201b826114fd565b91507fffffffffffffffffffffffffffffffffffffffffffffffffffffffffffffffff820361204d5761204c611fe1565b5b600182019050919050565b60008190508160005260206000209050919050565b601f8211156120ae5761207f81612058565b61208884611b23565b81016020851015612097578190505b6120ab6120a385611b23565b830182611c0a565b50505b505050565b6120bc8261158a565b67ffffffffffffffff8111156120d5576120d4611376565b5b6120df8254611add565b6120ea82828561206d565b600060209050601f83116001811461211d576000841561210b578287015190505b6121158582611c9e565b86555061217d565b601f19841661212b86612058565b60005b828110156121535784890151825560018201915060208501945060208101905061212e565b86831015612170578489015161216c601f891682611c80565b8355505b6001600288020188555050505b505050505050565b6000612190826114fd565b915061219b836114fd565b92508282039050818111156121b3576121b2611fe1565b5b92915050565b7f4e487b7100000000000000000000000000000000000000000000000000000000600052603260045260246000fd5b7f596f7520617265206e6f742061207265676973746572656420766f7465720000600082015250565b600061221e601e83611595565b9150612229826121e8565b602082019050919050565b6000602082019050818103600083015261224d81612211565b9050919050565b7f456c656374696f6e206973206e6f742063757272656e746c792072756e6e696e60008201527f6700000000000000000000000000000000000000000000000000000000000000602082015250565b60006122b0602183611595565b91506122bb82612254565b604082019050919050565b600060208201905081810360008301526122df816122a3565b9050919050565b7f596f75206861766520616c726561647920766f74656400000000000000000000600082015250565b600061231c601683611595565b9150612327826122e6565b602082019050919050565b6000602082019050818103600083015261234b8161230f565b9050919050565b7f496e76616c696420766f746572206b6579000000000000000000000000000000600082015250565b6000612388601183611595565b915061239382612352565b602082019050919050565b600060208201905081810360008301526123b78161237b565b905091905056fea2646970667358221220db1de53d9ad909da9d0da018c3108a975b09d29e6c43fb128753169889fd548864736f6c63430008180033",
  "linkReferences": {},
  "deployedLinkReferences": {}
}